:0400000094EF0BF07E
:10060000003F0006005B004F0066006D007D0007A4
:10061000007F006F007700FC0039005E00790071F8
:100620000000803F72313FFE753E58633D951D3C92
:10063000C5AE3A79213994803793A73556153400E1
:10064000000000803FF0FFBEE2A93E8376BEAE2BE5
:0B0650003E3CC3BDD2133D78D3BB007D
:10065C003B503C103D10D8A407D0000E3B6E800ED2
:10066C003C6E3F0E3D6E1200720E016E310E026E2C
:10067C00440E036E3BC004F03CC005F03DC006F0D8
:10068C00C2EC0AF0D8B00BD0000E5A6E220E596E86
:10069C00FF0E3B6E7F0E3C6E7F0E3D6E12003BC01C
:1006AC0001F03CC002F03DC003F0490E046E3A0E5E
:1006BC00056EC40E066EC2EC0AF0D8B00BD0000E5C
:1006CC005A6E220E596E000E3B6E000E3C6E000EE2
:1006DC003D6E12003DAE02D0010E01D0000E436EF5
:1006EC004350D8B40ED03BC001F03CC002F03DC02A
:1006FC0003F0F6EC0BF001C03BF002C03CF003C081
:10070C003DF03BC00DF03CC00EF03DC00FF0AA0E0A
:10071C00106EB80E116E3F0E126EFDEC07F00DC090
:10072C003BF00EC03CF00FC03DF03BC028F03CC08D
:10073C0029F03DC02AF0EAEC08F028C03EF029C0B0
:10074C003FF02AC040F03EC00DF03FC00EF040C05C
:10075C000FF083EC07F00DC041F00EC042F03BC02F
:10076C0028F03CC029F03DC02AF041C009F042C03D
:10077C000AF0B3EC0BF009C02BF00AC02CF00BC044
:10078C002DF074EC0BF028C03BF029C03CF02AC0D3
:10079C003DF03BC028F03CC029F03DC02AF0210EB2
:1007AC002B6E060E2C6E000E2E6E090E2D6E59EC55
:1007BC0009F028C034F029C035F02AC036F041C009
:1007CC0037F042C038F0C2EC09F034C03BF035C011
:1007DC003CF036C03DF04350D8B425D03B280EE158
:1007EC007F0E3C180BE17F0E3D18D8A407D0000EED
:1007FC003B6E000E3C6E000E3D6E1200000E096E3C
:10080C00800E0A6E3F0E0B6E3BC00CF03CC00DF020
:10081C003DC00EF077EC08F009C03BF00AC03CF08C
:10082C000BC03DF012003BC03BF03CC03CF03DC067
:10083C003DF012001EC022F0236A246A1D342236B9
:10084C0001E323802250276E21C022F0236A246A00
:10085C002034223601E323802250266E2750D8B450
:10086C000BD02650275CD8B00ED027500008262479
:10087C00226E180E226407D01FC01CF020C01DF081
:10088C0021C01EF012002650D8B40BD02750265C85
:10089C00D8B00ED0265000082724226E180E2264E1
:1008AC0007D01CC01CF01DC01DF01EC01EF0120095
:1008BC00060E256E1EBE258E21BE258C1D8EFF0EAE
:1008CC001C16FF0E1D16000E1E16208EFF0E1F1678
:1008DC00FF0E2016000E21162650275CD8B01BD018
:1008EC00D8901F3620362136260627502618D8B425
:1008FC000DD0250625C022F0070E2216D8B406D03E
:10090C00EFD7D8901E321D321C32272A26502718BA
:10091C00D8B41FD0F6D72750265CD8B01AD0D890B0
:10092C001C361D361E36270627502618D8B40DD077
:10093C00250625C022F0070E2216D8B406D0EFD714
:10094C00D890213220321F32262A26502718D8A4BC
:10095C00F7D725AE0CD0FF0E1C1AFF0E1D1AFF0E7A
:10096C001E1A010E1C26000E1D22000E1E2225AC86
:10097C000CD0FF0E1F1AFF0E201AFF0E211A010EAB
:10098C001F26000E2022000E2122000E256E1C5068
:10099C001F261D5020221E50212221AE0ED0FF0EEC
:1009AC001F1AFF0E201AFF0E211A010E1F26000E11
:1009BC002022000E2122010E256E1FC001F020C046
:1009CC0002F021C003F027C004F025C005F023EC91
:1009DC000AF001C01CF002C01DF003C01EF0120092
:1009EC00000E506E445045104610D8A41BD0000E7B
:1009FC00016E000E026E000E036E47C004F048C07C
:100A0C0005F049C006F0C2EC0AF0D8A004D0000EE4
:100A1C005A6E210E596E000E446E000E456E000E7D
:100A2C00466E1200475048104910D8A407D0000E4B
:100A3C00446E800E456E3F0E466E120046AE40D0A0
:100A4C0047C00DF048C00EF049C00FF083EC07F022
:100A5C000DC051F00EC052F00FC053F010C054F046
:100A6C0051C009F052C00AF053C00BF054C00CF046
:100A7C0046EC0BF04750091807E148500A1804E1FE
:100A8C0049500B18D8B40BD0000E5A6E210E596E6B
:100A9C00000E446E000E456E000E466E1200515054
:100AAC00010B506E44C001F045C002F046C003F08B
:100ABC00F6EC0BF001C044F002C045F003C046F068
:100ACC0044C034F045C035F046C036F0F6EC06F0C4
:100ADC0034C04AF035C04BF036C04CF04AC00DF073
:100AEC004BC00EF04CC00FF047C010F048C011F0D6
:100AFC0049C012F0FDEC07F00DC04DF00EC04EF0E9
:100B0C000FC04FF04DC03BF04EC03CF04FC03DF01D
:100B1C002EEC03F03BC044F03CC045F03DC046F029
:100B2C005050D8B40FD044C001F045C002F046C0BC
:100B3C0003F0F6EC0BF001C044F002C045F003C02A
:100B4C0046F0120044C044F045C045F046C046F0A3
:100B5C001200016E83D0010EF66E060EF76E0800C1
:100B6C00F5CF82FF1200030EF66E060EF76E08002C
:100B7C00F5CF82FF1200050EF66E060EF76E08001A
:100B8C00F5CF82FF1200070EF66E060EF76E080008
:100B9C00F5CF82FF1200090EF66E060EF76E0800F6
:100BAC00F5CF82FF12000B0EF66E060EF76E0800E4
:100BBC00F5CF82FF12000D0EF66E060EF76E0800D2
:100BCC00F5CF82FF12000F0EF66E060EF76E0800C0
:100BDC00F5CF82FF1200110EF66E060EF76E0800AE
:100BEC00F5CF82FF1200130EF66E060EF76E08009C
:100BFC00F5CF82FF1200150EF66E060EF76E08008A
:100C0C00F5CF82FF1200170EF66E060EF76E080077
:100C1C00F5CF82FF1200190EF66E060EF76E080065
:100C2C00F5CF82FF12001B0EF66E060EF76E080053
:100C3C00F5CF82FF12001D0EF66E060EF76E080041
:100C4C00F5CF82FF12001F0EF66E060EF76E08002F
:100C5C00F5CF82FF1200800E826E12000150300A16
:100C6C00D8B479D7010AD8B47ED7030AD8B483D7BD
:100C7C00010AD8B488D7070AD8B48DD7010AD8B4DA
:100C8C0092D7030AD8B497D7010AD8B49CD70F0AC5
:100C9C00D8B4A1D7010AD8B4A6D7780AD8B4ABD7A0
:100CAC00030AD8B4B0D7010AD8B4B5D7070AD8B458
:100CBC00BAD7010AD8B4BFD7030AD8B4C4D7CBD794
:100CCC007A0E0001966F20EE60F010EE80F00F0EA1
:100CDC00DBCFE3FFE806FCE2000E9A6F000E996F83
:100CEC009ABF06D09A5170E1040E995DD8B06CD0C1
:100CFC0099C009F09AC00AF0B3EC0BF009C090F05F
:100D0C000AC091F00BC092F090C047F091C048F02F
:100D1C0092C049F0000E446E000E456E400E466EB9
:100D2C00F6EC04F044C093F045C094F046C095F046
:100D3C0093C00DF094C00EF095C00FF083EC07F04B
:100D4C000D50836E8150D8B437D081A005D0000EE1
:100D5C000001986F000E976F81A205D0000E000164
:100D6C00986F010E976F81A405D0000E0001986F4B
:100D7C00020E976F81A605D0000E0001986F030E2E
:100D8C00976F99C055F09AC056F0D8905536563694
:100D9C00D89055365636800E576E000E586E5550FC
:100DAC00572656505822000197515724D96E985106
:100DBC005820DA6EDF50966F0001994B9A2B9ABF30
:100DCC0097D79A5101E190D7110E556E3A0EE82E35
:100DDC00FED7552EFCD700F000F000019651120002
:100DEC0036AE0BD0000E5A6E210E596E000E346EBC
:100DFC00000E356E000E366E120034503510361063
:100E0C00D8A40BD0000E5A6E220E596E000E346E02
:100E1C00000E356E000E366E1200000E106E000EB7
:100E2C00116E400E126E370E046E000E056E34C03D
:100E3C0001F035C002F036C003F07AEC0AF001C0C4
:100E4C000DF002C00EF003C00FF0FDEC07F00DC06A
:100E5C001CF00EC01DF00FC01EF0000E1F6E800E99
:100E6C00206EBF0E216E20EC04F01CC034F01DC0AF
:100E7C0035F01EC036F03706D8A0380634C028F03E
:100E8C0035C029F036C02AF03F0E2B6E060E2C6EA4
:100E9C00000E2E6E080E2D6E59EC09F028C034F0A1
:100EAC0029C035F02AC036F0720E106E310E116E5C
:100EBC003F0E126E37C009F038C00AF0B3EC0BF0DD
:100ECC0009C00DF00AC00EF00BC00FF0FDEC07F0DE
:100EDC000DC01CF00EC01DF00FC01EF034C01FF072
:100EEC0035C020F036C021F020EC04F01CC034F0EA
:100EFC001DC035F01EC036F012000FC011F0126A82
:100F0C00136A0E34113601E3128011501B6E1B5004
:100F1C00D8A409D0000E0D6E000E0E6E000E0F6ED2
:100F2C00000E106E1200170E116E0DC012F00EC0D6
:100F3C0013F00FC014F01128156E04D0D890143291
:100F4C0013321232152EFAD71250166E0E8EFF0E69
:100F5C000D16FF0E0E16000E0F160D50176E0E50BE
:100F6C00186E0F50196E1A6A8E0E1B5E1BAE16D0C1
:100F7C001B50800A8F0FD8B009D0000E0D6E000EDA
:100F8C000E6E000E0F6E000E106E1200D8901A32FC
:100F9C001932183217321B3EF9D715D0170E1B64B5
:100FAC000FD0000E0D6E000E0E6E000E0F6E000EAA
:100FBC00106E1200D8901736183619361A361B06D2
:100FCC001B50D8A4F7D71650D8B408D01A1E191E27
:100FDC00181E176C000E182219221A2217C00DF0B9
:100FEC0018C00EF019C00FF01AC010F012000FC08C
:100FFC0013F0146A156A0E34133601E3148013507F
:10100C00166E1650D8A407D0000E0D6E000E0E6E84
:10101C00000E0F6E120012C013F0146A156A113410
:10102C00133601E3148013501B6E1B50D8A407D049
:10103C00000E0D6E000E0E6E000E0F6E12001B5089
:10104C007B0F16260FC01BF012501B1A800E1B169E
:10105C000E8E118EFF0E1016FF0E1116000E1216AC
:10106C00000E176E000E186E000E196E070E1A6E1B
:10107C000DA006D01050172611501822125019220C
:10108C00D8900F320E320D32D890103611361236EF
:10109C001A2EEED7090E1A6E0DA006D01050172678
:1010AC001150182212501922D8900F320E320D32D4
:1010BC00D8901932183217321A2EEED717C001F009
:1010CC0018C002F019C003F016C004F01BC005F0E4
:1010DC0023EC0AF001C00DF002C00EF003C00FF0BB
:1010EC0012000BC00FF0106A116A0A340F3601E3BC
:1010FC0010800F50166E1650D8A407D0000E096E33
:10110C00000E0A6E000E0B6E12000EC00FF0106A6D
:10111C00116A0D340F3601E310800F50176E175003
:10112C00D8A407D0000E096E000E0A6E000E0B6ECE
:10113C001200000E136E000E146E000E156E17507A
:10114C00890F165E0BC017F00E50171A800E17166B
:10115C000A8EFF0E0916FF0E0A16000E0B160D8EC8
:10116C00FF0E0C16FF0E0D16000E0E16180E126E3C
:10117C00D8901336143615360C50095C0D500A589D
:10118C000E500B58D8A007D00C50095E0D500A5ABF
:10119C000E500B5A1380D89009360A360B36122E85
:1011AC00E7D713C001F014C002F015C003F016C04D
:1011BC0004F017C005F023EC0AF001C009F002C0DE
:1011CC000AF003C00BF0120028C001F029C002F095
:1011DC002AC003F02E0E046E000E056E7AEC0AF097
:1011EC002FAE10D02AAE07D0000E286E800E296EBE
:1011FC00BF0E2A6E1200000E286E000E296E000E15
:10120C002A6E12002F5004E1150E2E5CD8A007D0C8
:10121C0028C028F029C029F02AC02AF0120028C0C2
:10122C000DF029C00EF02AC00FF083EC07F00DC0B2
:10123C001CF00EC01DF00FC01EF010C01FF00AEC09
:10124C000BF01CC02BF01DC02CF01EC02DF028C0C4
:10125C0001F029C002F02AC003F02BC004F02CC00E
:10126C0005F02DC006F0C2EC0AF0D8B015D02BC09A
:10127C001CF02CC01DF02DC01EF0000E1F6E800E39
:10128C00206EBF0E216E20EC04F01CC028F01DC097
:10129C0029F01EC02AF012002BC028F02CC029F017
:1012AC002DC02AF012002DC001F02EC002F0000E4D
:1012BC00046E030E036EE3EC0BF02BC02FF02CC06E
:1012CC0030F001502F26025030222FC0F6FF30C0D4
:1012DC00F7FF0900F5CF31F00900F5CF32F00A0025
:1012EC00F5CF33F03ED031C010F032C011F033C026
:1012FC0012F028C00DF029C00EF02AC00FF0FDEC42
:10130C0007F00DC01CF00EC01DF00FC01EF0000E3B
:10131C00046E030E036E2D06D8A02E062DC001F010
:10132C002EC002F0E3EC0BF02BC02FF02CC030F0F1
:10133C0001502F26025030222FC0F6FF30C0F7FF8D
:10134C000900F5CF1FF00900F5CF20F00A00F5CF0A
:10135C0021F020EC04F01CC031F01DC032F01EC096
:10136C0033F02D502E10D8A4BED731C028F032C087
:10137C0029F033C02AF01200345035103610D8A49E
:10138C0007D0000E346E000E356E000E366E120055
:10139C0036507F0B396E3A6AD89039363A36395016
:1013AC0037263A50382235AE03D0396A392A01D063
:1013BC00396A39503726000E382238AE0BD0000E61
:1013CC005A6E220E596E000E346E000E356E000EE3
:1013DC00366E120038BE15D03804D8A012D0000ECC
:1013EC005A6E220E596E36AE06D0FF0E346E7F0E3C
:1013FC00356EFF0EEDD7FF0E346E7F0E356E7F0E01
:10140C00E7D7383438303A6E3730396E36503918B1
:10141C00800B3918366E37C039F0010E3916393257
:10142C003932355039187F0B3918356E34C034F0D9
:10143C0035C035F036C036F012000450D8B405D0A3
:10144C00015002100310D8A40CD0000E016E000E37
:10145C00026E000E036E1200042AD8900332023280
:10146C000132000E0114066E000E0214076EFE0E01
:10147C000314086E065007100810D8B40CD0ECD723
:10148C00042A010E0126000E0222000E0322D8901F
:10149C00033202320132000E0114066E000E0214E9
:1014AC00076EFF0E0314086E065007100810D8B410
:1014BC0006D0E6D70406D89001360236033602BEB3
:1014CC0003D0020E0460F6D704A0029ED89004321A
:1014DC00045003120550D8A4038E01C001F002C0C1
:1014EC0002F003C003F01200015002100310D8A444
:1014FC000FD004C0D9FF05C0DAFF000EDE6E000E5F
:10150C00DD6E000E016E000E026E000E036E1200F8
:10151C0003507F0B066E076AD8900636073604C058
:10152C00D9FF05C0DAFF06C0DEFF07C0DDFF02AE43
:10153C0003D0066A062A01D0066A065004C0D9FFF9
:10154C0005C0DAFFDE12000EDD1204C0D9FF05C0A3
:10155C00DAFF820EDE26FF0EDD2203800382038477
:10156C0003860388038A039C029E01C001F002C01B
:10157C0002F003C003F0120003AE16D001C007F056
:10158C0002C008F003C009F0071E081E091E072A36
:10159C00000E08220922000E0724016E000E0820FE
:1015AC00026E800E0920036E06AE16D004C007F042
:1015BC0005C008F006C009F0071E081E091E072A00
:1015CC00000E08220922000E0724046E000E0820CB
:1015DC00056E800E0920066E000E011A000E021A0E
:1015EC00800E031A000E041A000E051A800E061A3D
:1015FC000450015C0550025806500358D8B002D074
:10160C00D8901200D8801200000E256E8E0E246E1B
:10161C001FAE11D01F1E1E1E1D1E1C6C000E1D2287
:10162C001E221F22010E256E06D0D8901F321E32AC
:10163C001D321C32242A000E1C14206E000E1D14A8
:10164C00216E000E1E14226EFF0E1F14236E2050EE
:10165C00211022102310D8A4E8D71CC001F01DC003
:10166C0002F01EC003F024C004F025C005F023ECEA
:10167C000AF001C01CF002C01DF003C01EF01200E5
:10168C008E0E116E06D0D8900C320B320A32093203
:10169C00112A000E09140D6E000E0A140E6E000EA7
:1016AC000B140F6EFF0E0C14106E0D500E100F104D
:1016BC001010D8A4E8D709C001F00AC002F00BC082
:1016CC0003F011C004F0000E056E23EC0AF001C00B
:1016DC0009F002C00AF003C00BF012002B502C10C2
:1016EC002D10D8B406D0000E2B1A000E2C1A800E1A
:1016FC002D1A28C01CF029C01DF02AC01EF02BC0CA
:10170C001FF02CC020F02DC021F020EC04F01CC0E8
:10171C0028F01DC029F01EC02AF01200100EF66E23
:10172C00180EF76E000EF86E00EE60F010EE20F062
:10173C000900F5CFEEFFE550E150FAE100019E6B98
:10174C009D6B9C6B9B6B5D6A5C6A5B6A5A6A596A9F
:10175C00000EF86E0001CFEF0BF0000E0C6E0AAE0F
:10176C0006D0096C0A1ED8B00A2A010E0C6E09C0EC
:10177C0001F00AC002F0036A8E0E046E0CC005F074
:10178C0023EC0AF001C009F002C00AF003C00BF010
:10179C0012009368000E956E000E946E000E826E11
:1017AC00000E836E000E816E000E7E6E000E7F6E3C
:1017BC0066EC06F0AFEC05F0FBD701500302F3CF5B
:1017CC0005F0F4CF06F001500402F3500626025047
:1017DC000302F350062605C001F006C002F0120009
:1017EC00015002100310D8B406D0000E011A000EDE
:1017FC00021A800E031A01C001F002C002F003C0ED
:10180C0003F0120031323341343536423738394324
:10181C0023302A443031323334353637383941426B
:04182C0043444546A6
:020000040020DA
:08000000FFFFFFFFFFFFFFFF00
:020000040030CA
:0E000000FF08071EFF0B81FF0FC00FE00F402F
:00000001FF
